:1009B90002080CC291120818D29112081880F47812
:1009C9007FE4F6D8FD7581080208007FFF7EFFDE0F
:0409D900FEDFFA2221
:0C09F2007F037EFF7DFFDDFEDEFADFF6F6
:0109FE0022D6
:080A0B00A291B392910209F2DD
:1008F60078087C007D007BFF7A0979B97E007F2429
:100906001208D0752C00752D00E4FFFEC3EF94038A
:10091600EE9400501B74082FF8E6852D82852C83F3
:10092600F00FBF00010E052DE52D70E0052C80DCD3
:10093600752C00752D03E4FEFFC3EF94FDEE9407BE
:100946005018852D82852C8374FFF00FBF00010E91
:10095600052DE52D70E3052C80DF752C08752D001F
:100966007E007F03C3EF9424EE9400501B74082F7F
:10097600F8E6852D82852C83F00FBF00010E052D2C
:10098600E52D70E0052C80DC752C08752D21E4FE24
:10099600FFC3EF94DFEE94775018852D82852C8364
:1009A60074FFF00FBF00010E052DE52D70E3052C39
:0209B60080DFE0
:0109B800221C
:1009DD007C05D290D297D291120A0BDCFB1208F64D
:0509ED00120A0B80FB63
:030000000209FFF3
:0C09FF00787FE4F6D8FD75812D0209DD3B
:10080000E709F608DFFA8046E709F208DFFA803EDA
:1008100088828C83E709F0A3DFFA8032E309F608C7
:10082000DFFA8078E309F208DFFA807088828C832F
:10083000E309F0A3DFFA806489828A83E0A3F608E3
:10084000DFFA805889828A83E0A3F208DFFA804CBD
:1008500080D280FA80C680D4806980F28033801094
:1008600080A680EA809A80A880DA80E280CA8033FD
:1008700089828A83ECFAE493A3C8C582C8CCC58375
:10088000CCF0A3C8C582C8CCC583CCDFE9DEE78045
:100890000D89828A83E493A3F608DFF9ECFAA9F0C4
:1008A000EDFB2289828A83ECFAE0A3C8C582C8CC1A
:1008B000C583CCF0A3C8C582C8CCC583CCDFEADE33
:1008C000E880DB89828A83E493A3F208DFF980CC95
:1008D00088F0EF60010E4E60C388F0ED2402B4048E
:1008E0000050B9F582EB2402B4040050AF23234535
:0608F00082239008507302
:00000001FF
